:020000040000FA
:020000001528C1
:08000800A300030EA4000B1974
:100010000A2810280B11A50AA60A3D3081001028D5
:10002000240E8300A30E230E0900A501A60183164A
:10003000F03085000610031788018901031307308B
:100040008104D730810583123D3081000B118B165E
:100050008B173D2006182A280108A900A801861838
:100060003228342827103628271436283720033022
:10007000A9050030290203190134031383120F303C
:1000800085006020A00185010030200203190514BD
:100090000134013020020319851402340230200299
:1000A000031905150434033020020319851508349B
:1000B0006C20A00A04302002031D4328850108009B
:1000C0006C206C206C206C206C200800F830A100A3
:1000D0000000A10B68280800C830A2006620A20B0F
:0400E0006E2808007E
:02400E00F42F8D
:02401000FF3F70
:00000001FF
