:020000040000FA
:020000001628C0
:08000800A300030EA400830114
:100010000B190B2811280B11A50AA60A3D308100E7
:100020001128240E8300A30E230E09000230013C88
:10003000A501A6018316F03085000610861003176F
:1000400088018901031307308104D73081058312A9
:100050003D3081000B118B168B1775205F308400AB
:100060008313AA01061832280108A900A8018618DE
:100070003A283C2827103E2827143E2841205320A8
:1000800032280330A9050030290203190134013058
:1000900029020319023402302902031904340330FF
:1000A0002902031908348000840AAA0A08000313ED
:1000B0008312AB015F30840008080F39003C031D38
:1000C000622864285C280800AD007020003C0319F9
:1000D0000800AB0A840A2B082A02031808005C28CF
:1000E000AD088002031D00342D34031383120F303A
:1000F00085009420A0018501003020020319051419
:10010000013020020319851402302002031905155D
:100110000330200203198515A020A00A0430200214
:10012000031D7B2885010800A020A020A020A0207E
:10013000A0200800F830A1000000A10B9C280800B6
:0C014000C830A2009A20A20BA2280800E0
:02400E00F42F8D
:02401000FF3F70
:00000001FF
